{
  "contractName": "darkPool",
  "abi": [
    {
      "inputs": [],
      "stateMutability": "nonpayable",
      "type": "constructor"
    },
    {
      "anonymous": false,
      "inputs": [
        {
          "indexed": false,
          "internalType": "address",
          "name": "sender",
          "type": "address"
        },
        {
          "indexed": false,
          "internalType": "bytes",
          "name": "commitment",
          "type": "bytes"
        },
        {
          "indexed": false,
          "internalType": "bytes",
          "name": "ciphertext",
          "type": "bytes"
        }
      ],
      "name": "commitmentRevealed",
      "type": "event"
    },
    {
      "anonymous": false,
      "inputs": [
        {
          "indexed": false,
          "internalType": "address",
          "name": "claimer",
          "type": "address"
        }
      ],
      "name": "fraudClaimed",
      "type": "event"
    },
    {
      "anonymous": false,
      "inputs": [
        {
          "indexed": false,
          "internalType": "string",
          "name": "buyer",
          "type": "string"
        },
        {
          "indexed": false,
          "internalType": "address",
          "name": "buyerAddr",
          "type": "address"
        },
        {
          "indexed": false,
          "internalType": "string",
          "name": "seller",
          "type": "string"
        },
        {
          "indexed": false,
          "internalType": "address",
          "name": "sellerAddr",
          "type": "address"
        },
        {
          "indexed": false,
          "internalType": "string",
          "name": "asset",
          "type": "string"
        },
        {
          "indexed": false,
          "internalType": "uint256",
          "name": "amount",
          "type": "uint256"
        },
        {
          "indexed": false,
          "internalType": "uint256",
          "name": "price",
          "type": "uint256"
        }
      ],
      "name": "logTrade",
      "type": "event"
    },
    {
      "anonymous": false,
      "inputs": [
        {
          "indexed": false,
          "internalType": "address",
          "name": "sender",
          "type": "address"
        },
        {
          "indexed": false,
          "internalType": "bytes",
          "name": "commitment",
          "type": "bytes"
        },
        {
          "indexed": false,
          "internalType": "bytes",
          "name": "ciphertext",
          "type": "bytes"
        },
        {
          "indexed": false,
          "internalType": "bytes",
          "name": "secret",
          "type": "bytes"
        }
      ],
      "name": "secretRevealed",
      "type": "event"
    },
    {
      "anonymous": false,
      "inputs": [
        {
          "indexed": false,
          "internalType": "enum darkPool.Phase",
          "name": "currentState",
          "type": "uint8"
        },
        {
          "indexed": false,
          "internalType": "uint256",
          "name": "expirationTime",
          "type": "uint256"
        }
      ],
      "name": "startPhase",
      "type": "event"
    },
    {
      "inputs": [],
      "name": "auctionMode",
      "outputs": [
        {
          "internalType": "uint256",
          "name": "",
          "type": "uint256"
        }
      ],
      "stateMutability": "view",
      "type": "function"
    },
    {
      "inputs": [],
      "name": "expiration",
      "outputs": [
        {
          "internalType": "uint256",
          "name": "",
          "type": "uint256"
        }
      ],
      "stateMutability": "view",
      "type": "function"
    },
    {
      "inputs": [],
      "name": "operator",
      "outputs": [
        {
          "internalType": "address",
          "name": "",
          "type": "address"
        }
      ],
      "stateMutability": "view",
      "type": "function"
    },
    {
      "inputs": [
        {
          "internalType": "address",
          "name": "",
          "type": "address"
        }
      ],
      "name": "orders",
      "outputs": [
        {
          "internalType": "bytes",
          "name": "_commitment",
          "type": "bytes"
        },
        {
          "internalType": "bytes",
          "name": "_ciphertext",
          "type": "bytes"
        },
        {
          "internalType": "bytes",
          "name": "_sk",
          "type": "bytes"
        }
      ],
      "stateMutability": "view",
      "type": "function"
    },
    {
      "inputs": [],
      "name": "phase",
      "outputs": [
        {
          "internalType": "enum darkPool.Phase",
          "name": "",
          "type": "uint8"
        }
      ],
      "stateMutability": "view",
      "type": "function"
    },
    {
      "inputs": [
        {
          "internalType": "address",
          "name": "",
          "type": "address"
        }
      ],
      "name": "us_pk",
      "outputs": [
        {
          "internalType": "bytes",
          "name": "",
          "type": "bytes"
        }
      ],
      "stateMutability": "view",
      "type": "function"
    },
    {
      "inputs": [
        {
          "internalType": "address",
          "name": "client_address",
          "type": "address"
        },
        {
          "internalType": "bytes",
          "name": "pk",
          "type": "bytes"
        }
      ],
      "name": "register_client",
      "outputs": [],
      "stateMutability": "nonpayable",
      "type": "function"
    },
    {
      "inputs": [
        {
          "internalType": "uint256",
          "name": "time",
          "type": "uint256"
        },
        {
          "internalType": "uint256",
          "name": "mode",
          "type": "uint256"
        }
      ],
      "name": "trading_phase",
      "outputs": [],
      "stateMutability": "nonpayable",
      "type": "function"
    },
    {
      "inputs": [
        {
          "internalType": "uint256",
          "name": "time",
          "type": "uint256"
        }
      ],
      "name": "reveal_phase",
      "outputs": [],
      "stateMutability": "nonpayable",
      "type": "function"
    },
    {
      "inputs": [],
      "name": "calc_phase",
      "outputs": [],
      "stateMutability": "nonpayable",
      "type": "function"
    },
    {
      "inputs": [
        {
          "internalType": "string",
          "name": "asset",
          "type": "string"
        },
        {
          "internalType": "address",
          "name": "buyer",
          "type": "address"
        },
        {
          "internalType": "bytes",
          "name": "skB",
          "type": "bytes"
        },
        {
          "internalType": "string",
          "name": "nameB",
          "type": "string"
        },
        {
          "internalType": "address",
          "name": "seller",
          "type": "address"
        },
        {
          "internalType": "bytes",
          "name": "skS",
          "type": "bytes"
        },
        {
          "internalType": "string",
          "name": "nameS",
          "type": "string"
        },
        {
          "internalType": "uint256",
          "name": "amount",
          "type": "uint256"
        },
        {
          "internalType": "uint256",
          "name": "price",
          "type": "uint256"
        }
      ],
      "name": "reveal_match",
      "outputs": [],
      "stateMutability": "nonpayable",
      "type": "function"
    },
    {
      "inputs": [
        {
          "internalType": "uint256",
          "name": "time",
          "type": "uint256"
        }
      ],
      "name": "res_phase",
      "outputs": [],
      "stateMutability": "nonpayable",
      "type": "function"
    },
    {
      "inputs": [],
      "name": "reg_phase",
      "outputs": [],
      "stateMutability": "nonpayable",
      "type": "function"
    },
    {
      "inputs": [
        {
          "internalType": "address",
          "name": "client_address",
          "type": "address"
        }
      ],
      "name": "remove_order",
      "outputs": [],
      "stateMutability": "nonpayable",
      "type": "function"
    },
    {
      "inputs": [
        {
          "internalType": "address",
          "name": "client_address",
          "type": "address"
        }
      ],
      "name": "remove_client",
      "outputs": [],
      "stateMutability": "nonpayable",
      "type": "function"
    },
    {
      "inputs": [
        {
          "internalType": "bytes",
          "name": "hashed_order",
          "type": "bytes"
        }
      ],
      "name": "commit_order",
      "outputs": [],
      "stateMutability": "nonpayable",
      "type": "function"
    },
    {
      "inputs": [],
      "name": "cancel_order",
      "outputs": [],
      "stateMutability": "nonpayable",
      "type": "function"
    },
    {
      "inputs": [
        {
          "internalType": "bytes",
          "name": "hashed_order",
          "type": "bytes"
        }
      ],
      "name": "change_order",
      "outputs": [],
      "stateMutability": "nonpayable",
      "type": "function"
    },
    {
      "inputs": [
        {
          "internalType": "bytes",
          "name": "ciphertext",
          "type": "bytes"
        }
      ],
      "name": "reveal_order",
      "outputs": [],
      "stateMutability": "nonpayable",
      "type": "function"
    },
    {
      "inputs": [],
      "name": "claim_fraud",
      "outputs": [],
      "stateMutability": "nonpayable",
      "type": "function"
    }
  ],
  "bytecode": "0x60806040523480156200001157600080fd5b5033600060016101000a81548173ffffffffffffffffffffffffffffffffffffffff021916908373ffffffffffffffffffffffffffffffffffffffff16021790555060008060006101000a81548160ff021916908360048111156200009f577f4e487b7100000000000000000000000000000000000000000000000000000000600052602160045260246000fd5b02179055507f6cbedf016343735c7df1dd978080061d29a9ad9c17b4676e17d5f03529068b2d600080604051620000d892919062000108565b60405180910390a1620001c2565b620000f18162000154565b82525050565b620001028162000168565b82525050565b60006040820190506200011f6000830185620000e6565b6200012e6020830184620000f7565b9392505050565b60008190506200014582620001ab565b919050565b6000819050919050565b6000620001618262000135565b9050919050565b600062000175826200014a565b9050919050565b7f4e487b7100000000000000000000000000000000000000000000000000000000600052602160045260246000fd5b60058110620001bf57620001be6200017c565b5b50565b613bdd80620001d26000396000f3fe608060405234801561001057600080fd5b506004361061012c5760003560e01c8063b1c9fe6e116100ad578063ed00ce1b11610071578063ed00ce1b146102b9578063efe2d9a4146102d5578063f40e8471146102f1578063f92a23ba14610323578063ff890b13146103415761012c565b8063b1c9fe6e1461023b578063c272338914610259578063ded33e3014610275578063ded83a10146102a5578063e83c6118146102af5761012c565b8063570ca735116100f4578063570ca735146101ad5780636f255d89146101cb578063850142d5146101e7578063905cc09d14610203578063a7e773281461021f5761012c565b80631b550cf5146101315780632eba303e1461014d5780634665096d146101575780634a0d436014610175578063506e2dd614610191575b600080fd5b61014b60048036038101906101469190612c64565b61034b565b005b610155610584565b005b61015f6107a6565b60405161016c91906134f6565b60405180910390f35b61018f600480360381019061018a9190612be7565b6107ac565b005b6101ab60048036038101906101a69190612e0c565b610a00565b005b6101b5610c3c565b6040516101c2919061313d565b60405180910390f35b6101e560048036038101906101e09190612be7565b610c62565b005b61020160048036038101906101fc9190612ca5565b610f01565b005b61021d60048036038101906102189190612de3565b61162e565b005b61023960048036038101906102349190612c10565b61181e565b005b6102436119c6565b6040516102509190613265565b60405180910390f35b610273600480360381019061026e9190612de3565b6119d7565b005b61028f600480360381019061028a9190612be7565b611c0d565b60405161029c91906131f7565b60405180910390f35b6102ad611cad565b005b6102b7611ecd565b005b6102d360048036038101906102ce9190612c64565b612053565b005b6102ef60048036038101906102ea9190612c64565b61228c565b005b61030b60048036038101906103069190612be7565b612613565b60405161031a93929190613219565b60405180910390f35b61032b6127d5565b60405161033891906134f6565b60405180910390f35b6103496127db565b005b60016004811115610385577f4e487b7100000000000000000000000000000000000000000000000000000000600052602160045260246000fd5b60008054906101000a900460ff1660048111156103cb577f4e487b7100000000000000000000000000000000000000000000000000000000600052602160045260246000fd5b1461040b576040517f08c379a0000000000000000000000000000000000000000000000000000000008152600401610402906133f6565b60405180910390fd5b6000600160003373ffffffffffffffffffffffffffffffffffffffff1673ffffffffffffffffffffffffffffffffffffffff1681526020019081526020016000208054610457906136f0565b905011610499576040517f08c379a000000000000000000000000000000000000000000000000000000000815260040161049090613436565b60405180910390fd5b6000600260003373ffffffffffffffffffffffffffffffffffffffff1673ffffffffffffffffffffffffffffffffffffffff16815260200190815260200160002060000180546104e8906136f0565b90501161052a576040517f08c379a0000000000000000000000000000000000000000000000000000000008152600401610521906134d6565b60405180910390fd5b80600260003373ffffffffffffffffffffffffffffffffffffffff1673ffffffffffffffffffffffffffffffffffffffff1681526020019081526020016000206000019080519060200190610580929190612a0a565b5050565b600060019054906101000a900473ffffffffffffffffffffffffffffffffffffffff1673ffffffffffffffffffffffffffffffffffffffff163373ffffffffffffffffffffffffffffffffffffffff1614610614576040517f08c379a000000000000000000000000000000000000000000000000000000000815260040161060b906134b6565b60405180910390fd5b6002600481111561064e577f4e487b7100000000000000000000000000000000000000000000000000000000600052602160045260246000fd5b60008054906101000a900460ff166004811115610694577f4e487b7100000000000000000000000000000000000000000000000000000000600052602160045260246000fd5b146106d4576040517f08c379a00000000000000000000000000000000000000000000000000000000081526004016106cb906133f6565b60405180910390fd5b600454431015610719576040517f08c379a0000000000000000000000000000000000000000000000000000000008152600401610710906133b6565b60405180910390fd5b60036000806101000a81548160ff02191690836004811115610764577f4e487b7100000000000000000000000000000000000000000000000000000000600052602160045260246000fd5b02179055507f6cbedf016343735c7df1dd978080061d29a9ad9c17b4676e17d5f03529068b2d6003600060405161079c929190613280565b60405180910390a1565b60045481565b600060019054906101000a900473ffffffffffffffffffffffffffffffffffffffff1673ffffffffffffffffffffffffffffffffffffffff163373ffffffffffffffffffffffffffffffffffffffff161461083c576040517f08c379a0000000000000000000000000000000000000000000000000000000008152600401610833906134b6565b60405180910390fd5b60006004811115610876577f4e487b7100000000000000000000000000000000000000000000000000000000600052602160045260246000fd5b60008054906101000a900460ff1660048111156108bc577f4e487b7100000000000000000000000000000000000000000000000000000000600052602160045260246000fd5b146108fc576040517f08c379a00000000000000000000000000000000000000000000000000000000081526004016108f3906133f6565b60405180910390fd5b6000600160008373ffffffffffffffffffffffffffffffffffffffff1673ffffffffffffffffffffffffffffffffffffffff1681526020019081526020016000208054610948906136f0565b9050141561098b576040517f08c379a000000000000000000000000000000000000000000000000000000000815260040161098290613376565b60405180910390fd5b600260008273ffffffffffffffffffffffffffffffffffffffff1673ffffffffffffffffffffffffffffffffffffffff168152602001908152602001600020600080820160006109db9190612a90565b6001820160006109eb9190612a90565b6002820160006109fb9190612a90565b505050565b600060019054906101000a900473ffffffffffffffffffffffffffffffffffffffff1673ffffffffffffffffffffffffffffffffffffffff163373ffffffffffffffffffffffffffffffffffffffff1614610a90576040517f08c379a0000000000000000000000000000000000000000000000000000000008152600401610a87906134b6565b60405180910390fd5b60006004811115610aca577f4e487b7100000000000000000000000000000000000000000000000000000000600052602160045260246000fd5b60008054906101000a900460ff166004811115610b10577f4e487b7100000000000000000000000000000000000000000000000000000000600052602160045260246000fd5b14610b50576040517f08c379a0000000000000000000000000000000000000000000000000000000008152600401610b47906133f6565b60405180910390fd5b60038110610b93576040517f08c379a0000000000000000000000000000000000000000000000000000000008152600401610b8a90613496565b60405180910390fd5b8060038190555060016000806101000a81548160ff02191690836004811115610be5577f4e487b7100000000000000000000000000000000000000000000000000000000600052602160045260246000fd5b02179055508143610bf691906135e5565b6004819055507f6cbedf016343735c7df1dd978080061d29a9ad9c17b4676e17d5f03529068b2d6001600454604051610c309291906132a9565b60405180910390a15050565b600060019054906101000a900473ffffffffffffffffffffffffffffffffffffffff1681565b600060019054906101000a900473ffffffffffffffffffffffffffffffffffffffff1673ffffffffffffffffffffffffffffffffffffffff163373ffffffffffffffffffffffffffffffffffffffff1614610cf2576040517f08c379a0000000000000000000000000000000000000000000000000000000008152600401610ce9906134b6565b60405180910390fd5b60006004811115610d2c577f4e487b7100000000000000000000000000000000000000000000000000000000600052602160045260246000fd5b60008054906101000a900460ff166004811115610d72577f4e487b7100000000000000000000000000000000000000000000000000000000600052602160045260246000fd5b14610db2576040517f08c379a0000000000000000000000000000000000000000000000000000000008152600401610da9906133f6565b60405180910390fd5b6000600160008373ffffffffffffffffffffffffffffffffffffffff1673ffffffffffffffffffffffffffffffffffffffff1681526020019081526020016000208054610dfe906136f0565b90501415610e41576040517f08c379a0000000000000000000000000000000000000000000000000000000008152600401610e3890613376565b60405180910390fd5b600260008273ffffffffffffffffffffffffffffffffffffffff1673ffffffffffffffffffffffffffffffffffffffff16815260200190815260200160002060008082016000610e919190612a90565b600182016000610ea19190612a90565b600282016000610eb19190612a90565b5050600160008273ffffffffffffffffffffffffffffffffffffffff1673ffffffffffffffffffffffffffffffffffffffff1681526020019081526020016000206000610efe9190612a90565b50565b600060019054906101000a900473ffffffffffffffffffffffffffffffffffffffff1673ffffffffffffffffffffffffffffffffffffffff163373ffffffffffffffffffffffffffffffffffffffff1614610f91576040517f08c379a0000000000000000000000000000000000000000000000000000000008152600401610f88906134b6565b60405180910390fd5b60036004811115610fcb577f4e487b7100000000000000000000000000000000000000000000000000000000600052602160045260246000fd5b60008054906101000a900460ff166004811115611011577f4e487b7100000000000000000000000000000000000000000000000000000000600052602160045260246000fd5b14611051576040517f08c379a0000000000000000000000000000000000000000000000000000000008152600401611048906133f6565b60405180910390fd5b8473ffffffffffffffffffffffffffffffffffffffff168873ffffffffffffffffffffffffffffffffffffffff1614156110c0576040517f08c379a00000000000000000000000000000000000000000000000000000000081526004016110b790613396565b60405180910390fd5b6000600260008a73ffffffffffffffffffffffffffffffffffffffff1673ffffffffffffffffffffffffffffffffffffffff168152602001908152602001600020600001805461110f906136f0565b905011611151576040517f08c379a000000000000000000000000000000000000000000000000000000000815260040161114890613456565b60405180910390fd5b6000600260008a73ffffffffffffffffffffffffffffffffffffffff1673ffffffffffffffffffffffffffffffffffffffff16815260200190815260200160002060010180546111a0906136f0565b9050116111e2576040517f08c379a00000000000000000000000000000000000000000000000000000000081526004016111d9906133d6565b60405180910390fd5b6000600260008773ffffffffffffffffffffffffffffffffffffffff1673ffffffffffffffffffffffffffffffffffffffff1681526020019081526020016000206000018054611231906136f0565b905011611273576040517f08c379a000000000000000000000000000000000000000000000000000000000815260040161126a90613456565b60405180910390fd5b6000600260008773ffffffffffffffffffffffffffffffffffffffff1673ffffffffffffffffffffffffffffffffffffffff16815260200190815260200160002060010180546112c2906136f0565b905011611304576040517f08c379a00000000000000000000000000000000000000000000000000000000081526004016112fb906133d6565b60405180910390fd5b6000600260008773ffffffffffffffffffffffffffffffffffffffff1673ffffffffffffffffffffffffffffffffffffffff1681526020019081526020016000206002018054611353906136f0565b905014156114725783600260008773ffffffffffffffffffffffffffffffffffffffff1673ffffffffffffffffffffffffffffffffffffffff16815260200190815260200160002060020190805190602001906113b1929190612a0a565b507fa998a0ff781481ffc4d4b3ba73650ac2f87266e85f365a44b36c5084100b609385600260008873ffffffffffffffffffffffffffffffffffffffff1673ffffffffffffffffffffffffffffffffffffffff168152602001908152602001600020600001600260008973ffffffffffffffffffffffffffffffffffffffff1673ffffffffffffffffffffffffffffffffffffffff16815260200190815260200160002060010187604051611469949392919061319d565b60405180910390a15b6000600260008a73ffffffffffffffffffffffffffffffffffffffff1673ffffffffffffffffffffffffffffffffffffffff16815260200190815260200160002060020180546114c1906136f0565b905014156115e05786600260008a73ffffffffffffffffffffffffffffffffffffffff1673ffffffffffffffffffffffffffffffffffffffff168152602001908152602001600020600201908051906020019061151f929190612a0a565b507fa998a0ff781481ffc4d4b3ba73650ac2f87266e85f365a44b36c5084100b609388600260008b73ffffffffffffffffffffffffffffffffffffffff1673ffffffffffffffffffffffffffffffffffffffff168152602001908152602001600020600001600260008c73ffffffffffffffffffffffffffffffffffffffff1673ffffffffffffffffffffffffffffffffffffffff1681526020019081526020016000206001018a6040516115d7949392919061319d565b60405180910390a15b7feb950a41a03ccd4b8d1436c363998e34b42c28d1aa9c12b3ab7dee03856b8dd5868985888d878760405161161b97969594939291906132d2565b60405180910390a1505050505050505050565b600060019054906101000a900473ffffffffffffffffffffffffffffffffffffffff1673ffffffffffffffffffffffffffffffffffffffff163373ffffffffffffffffffffffffffffffffffffffff16146116be576040517f08c379a00000000000000000000000000000000000000000000000000000000081526004016116b5906134b6565b60405180910390fd5b600360048111156116f8577f4e487b7100000000000000000000000000000000000000000000000000000000600052602160045260246000fd5b60008054906101000a900460ff16600481111561173e577f4e487b7100000000000000000000000000000000000000000000000000000000600052602160045260246000fd5b1461177e576040517f08c379a0000000000000000000000000000000000000000000000000000000008152600401611775906133f6565b60405180910390fd5b60046000806101000a81548160ff021916908360048111156117c9577f4e487b7100000000000000000000000000000000000000000000000000000000600052602160045260246000fd5b021790555080436117da91906135e5565b6004819055507f6cbedf016343735c7df1dd978080061d29a9ad9c17b4676e17d5f03529068b2d600480546040516118139291906132a9565b60405180910390a150565b600060019054906101000a900473ffffffffffffffffffffffffffffffffffffffff1673ffffffffffffffffffffffffffffffffffffffff163373ffffffffffffffffffffffffffffffffffffffff16146118ae576040517f08c379a00000000000000000000000000000000000000000000000000000000081526004016118a5906134b6565b60405180910390fd5b600060048111156118e8577f4e487b7100000000000000000000000000000000000000000000000000000000600052602160045260246000fd5b60008054906101000a900460ff16600481111561192e577f4e487b7100000000000000000000000000000000000000000000000000000000600052602160045260246000fd5b1461196e576040517f08c379a0000000000000000000000000000000000000000000000000000000008152600401611965906133f6565b60405180910390fd5b80600160008473ffffffffffffffffffffffffffffffffffffffff1673ffffffffffffffffffffffffffffffffffffffff16815260200190815260200160002090805190602001906119c1929190612a0a565b505050565b60008054906101000a900460ff1681565b600060019054906101000a900473ffffffffffffffffffffffffffffffffffffffff1673ffffffffffffffffffffffffffffffffffffffff163373ffffffffffffffffffffffffffffffffffffffff1614611a67576040517f08c379a0000000000000000000000000000000000000000000000000000000008152600401611a5e906134b6565b60405180910390fd5b60016004811115611aa1577f4e487b7100000000000000000000000000000000000000000000000000000000600052602160045260246000fd5b60008054906101000a900460ff166004811115611ae7577f4e487b7100000000000000000000000000000000000000000000000000000000600052602160045260246000fd5b14611b27576040517f08c379a0000000000000000000000000000000000000000000000000000000008152600401611b1e906133f6565b60405180910390fd5b600454431015611b6c576040517f08c379a0000000000000000000000000000000000000000000000000000000008152600401611b63906133b6565b60405180910390fd5b60026000806101000a81548160ff02191690836004811115611bb7577f4e487b7100000000000000000000000000000000000000000000000000000000600052602160045260246000fd5b02179055508043611bc891906135e5565b6004819055507f6cbedf016343735c7df1dd978080061d29a9ad9c17b4676e17d5f03529068b2d6002600454604051611c029291906132a9565b60405180910390a150565b60016020528060005260406000206000915090508054611c2c906136f0565b80601f0160208091040260200160405190810160405280929190818152602001828054611c58906136f0565b8015611ca55780601f10611c7a57610100808354040283529160200191611ca5565b820191906000526020600020905b815481529060010190602001808311611c8857829003601f168201915b505050505081565b600060019054906101000a900473ffffffffffffffffffffffffffffffffffffffff1673ffffffffffffffffffffffffffffffffffffffff163373ffffffffffffffffffffffffffffffffffffffff1614611d3d576040517f08c379a0000000000000000000000000000000000000000000000000000000008152600401611d34906134b6565b60405180910390fd5b600480811115611d76577f4e487b7100000000000000000000000000000000000000000000000000000000600052602160045260246000fd5b60008054906101000a900460ff166004811115611dbc577f4e487b7100000000000000000000000000000000000000000000000000000000600052602160045260246000fd5b14611dfc576040517f08c379a0000000000000000000000000000000000000000000000000000000008152600401611df3906133f6565b60405180910390fd5b600454431015611e41576040517f08c379a0000000000000000000000000000000000000000000000000000000008152600401611e38906133b6565b60405180910390fd5b60008060006101000a81548160ff02191690836004811115611e8c577f4e487b7100000000000000000000000000000000000000000000000000000000600052602160045260246000fd5b02179055507f6cbedf016343735c7df1dd978080061d29a9ad9c17b4676e17d5f03529068b2d600080604051611ec3929190613280565b60405180910390a1565b600480811115611f06577f4e487b7100000000000000000000000000000000000000000000000000000000600052602160045260246000fd5b60008054906101000a900460ff166004811115611f4c577f4e487b7100000000000000000000000000000000000000000000000000000000600052602160045260246000fd5b14611f8c576040517f08c379a0000000000000000000000000000000000000000000000000000000008152600401611f83906133f6565b60405180910390fd5b6000600160003373ffffffffffffffffffffffffffffffffffffffff1673ffffffffffffffffffffffffffffffffffffffff1681526020019081526020016000208054611fd8906136f0565b90501161201a576040517f08c379a000000000000000000000000000000000000000000000000000000000815260040161201190613416565b60405180910390fd5b7fa31b368c76a62025a1b5390909c0b83f9392255bf9b6fff4f8baa5400ec23b4c33604051612049919061313d565b60405180910390a1565b6001600481111561208d577f4e487b7100000000000000000000000000000000000000000000000000000000600052602160045260246000fd5b60008054906101000a900460ff1660048111156120d3577f4e487b7100000000000000000000000000000000000000000000000000000000600052602160045260246000fd5b14612113576040517f08c379a000000000000000000000000000000000000000000000000000000000815260040161210a906133f6565b60405180910390fd5b6000600160003373ffffffffffffffffffffffffffffffffffffffff1673ffffffffffffffffffffffffffffffffffffffff168152602001908152602001600020805461215f906136f0565b9050116121a1576040517f08c379a000000000000000000000000000000000000000000000000000000000815260040161219890613436565b60405180910390fd5b6000600260003373ffffffffffffffffffffffffffffffffffffffff1673ffffffffffffffffffffffffffffffffffffffff16815260200190815260200160002060000180546121f0906136f0565b905014612232576040517f08c379a000000000000000000000000000000000000000000000000000000000815260040161222990613356565b60405180910390fd5b80600260003373ffffffffffffffffffffffffffffffffffffffff1673ffffffffffffffffffffffffffffffffffffffff1681526020019081526020016000206000019080519060200190612288929190612a0a565b5050565b600260048111156122c6577f4e487b7100000000000000000000000000000000000000000000000000000000600052602160045260246000fd5b60008054906101000a900460ff16600481111561230c577f4e487b7100000000000000000000000000000000000000000000000000000000600052602160045260246000fd5b1461234c576040517f08c379a0000000000000000000000000000000000000000000000000000000008152600401612343906133f6565b60405180910390fd5b6000600160003373ffffffffffffffffffffffffffffffffffffffff1673ffffffffffffffffffffffffffffffffffffffff1681526020019081526020016000208054612398906136f0565b9050116123da576040517f08c379a00000000000000000000000000000000000000000000000000000000081526004016123d190613416565b60405180910390fd5b6000600260003373ffffffffffffffffffffffffffffffffffffffff1673ffffffffffffffffffffffffffffffffffffffff1681526020019081526020016000206000018054612429906136f0565b90501161246b576040517f08c379a0000000000000000000000000000000000000000000000000000000008152600401612462906134d6565b60405180910390fd5b6000600260003373ffffffffffffffffffffffffffffffffffffffff1673ffffffffffffffffffffffffffffffffffffffff16815260200190815260200160002060010180546124ba906136f0565b9050146124fc576040517f08c379a00000000000000000000000000000000000000000000000000000000081526004016124f390613476565b60405180910390fd5b80600260003373ffffffffffffffffffffffffffffffffffffffff1673ffffffffffffffffffffffffffffffffffffffff1681526020019081526020016000206001019080519060200190612552929190612a0a565b507f73df50f0fa2db5de81d8467bb3bb243344b7b8e7f433787c24b5f819e42eb9e133600260003373ffffffffffffffffffffffffffffffffffffffff1673ffffffffffffffffffffffffffffffffffffffff168152602001908152602001600020600001600260003373ffffffffffffffffffffffffffffffffffffffff1673ffffffffffffffffffffffffffffffffffffffff16815260200190815260200160002060010160405161260893929190613158565b60405180910390a150565b6002602052806000526040600020600091509050806000018054612636906136f0565b80601f0160208091040260200160405190810160405280929190818152602001828054612662906136f0565b80156126af5780601f10612684576101008083540402835291602001916126af565b820191906000526020600020905b81548152906001019060200180831161269257829003601f168201915b5050505050908060010180546126c4906136f0565b80601f01602080910402602001604051908101604052809291908181526020018280546126f0906136f0565b801561273d5780601f106127125761010080835404028352916020019161273d565b820191906000526020600020905b81548152906001019060200180831161272057829003601f168201915b505050505090806002018054612752906136f0565b80601f016020809104026020016040519081016040528092919081815260200182805461277e906136f0565b80156127cb5780601f106127a0576101008083540402835291602001916127cb565b820191906000526020600020905b8154815290600101906020018083116127ae57829003601f168201915b5050505050905083565b60035481565b60016004811115612815577f4e487b7100000000000000000000000000000000000000000000000000000000600052602160045260246000fd5b60008054906101000a900460ff16600481111561285b577f4e487b7100000000000000000000000000000000000000000000000000000000600052602160045260246000fd5b1461289b576040517f08c379a0000000000000000000000000000000000000000000000000000000008152600401612892906133f6565b60405180910390fd5b6000600160003373ffffffffffffffffffffffffffffffffffffffff1673ffffffffffffffffffffffffffffffffffffffff16815260200190815260200160002080546128e7906136f0565b905011612929576040517f08c379a000000000000000000000000000000000000000000000000000000000815260040161292090613436565b60405180910390fd5b6000600260003373ffffffffffffffffffffffffffffffffffffffff1673ffffffffffffffffffffffffffffffffffffffff1681526020019081526020016000206000018054612978906136f0565b9050116129ba576040517f08c379a00000000000000000000000000000000000000000000000000000000081526004016129b1906134d6565b60405180910390fd5b600260003373ffffffffffffffffffffffffffffffffffffffff1673ffffffffffffffffffffffffffffffffffffffff1681526020019081526020016000206000016000612a089190612a90565b565b828054612a16906136f0565b90600052602060002090601f016020900481019282612a385760008555612a7f565b82601f10612a5157805160ff1916838001178555612a7f565b82800160010185558215612a7f579182015b82811115612a7e578251825591602001919060010190612a63565b5b509050612a8c9190612ad0565b5090565b508054612a9c906136f0565b6000825580601f10612aae5750612acd565b601f016020900490600052602060002090810190612acc9190612ad0565b5b50565b5b80821115612ae9576000816000905550600101612ad1565b5090565b6000612b00612afb84613536565b613511565b905082815260208101848484011115612b1857600080fd5b612b238482856136ae565b509392505050565b6000612b3e612b3984613567565b613511565b905082815260208101848484011115612b5657600080fd5b612b618482856136ae565b509392505050565b600081359050612b7881613b79565b92915050565b600082601f830112612b8f57600080fd5b8135612b9f848260208601612aed565b91505092915050565b600082601f830112612bb957600080fd5b8135612bc9848260208601612b2b565b91505092915050565b600081359050612be181613b90565b92915050565b600060208284031215612bf957600080fd5b6000612c0784828501612b69565b91505092915050565b60008060408385031215612c2357600080fd5b6000612c3185828601612b69565b925050602083013567ffffffffffffffff811115612c4e57600080fd5b612c5a85828601612b7e565b9150509250929050565b600060208284031215612c7657600080fd5b600082013567ffffffffffffffff811115612c9057600080fd5b612c9c84828501612b7e565b91505092915050565b60008060008060008060008060006101208a8c031215612cc457600080fd5b60008a013567ffffffffffffffff811115612cde57600080fd5b612cea8c828d01612ba8565b9950506020612cfb8c828d01612b69565b98505060408a013567ffffffffffffffff811115612d1857600080fd5b612d248c828d01612b7e565b97505060608a013567ffffffffffffffff811115612d4157600080fd5b612d4d8c828d01612ba8565b9650506080612d5e8c828d01612b69565b95505060a08a013567ffffffffffffffff811115612d7b57600080fd5b612d878c828d01612b7e565b94505060c08a013567ffffffffffffffff811115612da457600080fd5b612db08c828d01612ba8565b93505060e0612dc18c828d01612bd2565b925050610100612dd38c828d01612bd2565b9150509295985092959850929598565b600060208284031215612df557600080fd5b6000612e0384828501612bd2565b91505092915050565b60008060408385031215612e1f57600080fd5b6000612e2d85828601612bd2565b9250506020612e3e85828601612bd2565b9150509250929050565b612e518161363b565b82525050565b6000612e62826135ad565b612e6c81856135c3565b9350612e7c8185602086016136bd565b612e858161380f565b840191505092915050565b60008154612e9d816136f0565b612ea781866135c3565b94506001821660008114612ec25760018114612ed457612f07565b60ff1983168652602086019350612f07565b612edd85613598565b60005b83811015612eff57815481890152600182019150602081019050612ee0565b808801955050505b50505092915050565b612f198161368a565b82525050565b612f288161369c565b82525050565b6000612f39826135b8565b612f4381856135d4565b9350612f538185602086016136bd565b612f5c8161380f565b840191505092915050565b6000612f746017836135d4565b9150612f7f82613820565b602082019050919050565b6000612f976016836135d4565b9150612fa282613849565b602082019050919050565b6000612fba6026836135d4565b9150612fc582613872565b604082019050919050565b6000612fdd6035836135d4565b9150612fe8826138c1565b604082019050919050565b60006130006025836135d4565b915061300b82613910565b604082019050919050565b6000613023602c836135d4565b915061302e8261395f565b604082019050919050565b6000613046603c836135d4565b9150613051826139ae565b604082019050919050565b6000613069603d836135d4565b9150613074826139fd565b604082019050919050565b600061308c6025836135d4565b915061309782613a4c565b604082019050919050565b60006130af601c836135d4565b91506130ba82613a9b565b602082019050919050565b60006130d26023836135d4565b91506130dd82613ac4565b604082019050919050565b60006130f56020836135d4565b915061310082613b13565b602082019050919050565b60006131186017836135d4565b915061312382613b3c565b602082019050919050565b61313781613680565b82525050565b60006020820190506131526000830184612e48565b92915050565b600060608201905061316d6000830186612e48565b818103602083015261317f8185612e90565b905081810360408301526131938184612e90565b9050949350505050565b60006080820190506131b26000830187612e48565b81810360208301526131c48186612e90565b905081810360408301526131d88185612e90565b905081810360608301526131ec8184612e57565b905095945050505050565b600060208201905081810360008301526132118184612e57565b905092915050565b600060608201905081810360008301526132338186612e57565b905081810360208301526132478185612e57565b9050818103604083015261325b8184612e57565b9050949350505050565b600060208201905061327a6000830184612f10565b92915050565b60006040820190506132956000830185612f10565b6132a26020830184612f1f565b9392505050565b60006040820190506132be6000830185612f10565b6132cb602083018461312e565b9392505050565b600060e08201905081810360008301526132ec818a612f2e565b90506132fb6020830189612e48565b818103604083015261330d8188612f2e565b905061331c6060830187612e48565b818103608083015261332e8186612f2e565b905061333d60a083018561312e565b61334a60c083018461312e565b98975050505050505050565b6000602082019050818103600083015261336f81612f67565b9050919050565b6000602082019050818103600083015261338f81612f8a565b9050919050565b600060208201905081810360008301526133af81612fad565b9050919050565b600060208201905081810360008301526133cf81612fd0565b9050919050565b600060208201905081810360008301526133ef81612ff3565b9050919050565b6000602082019050818103600083015261340f81613016565b9050919050565b6000602082019050818103600083015261342f81613039565b9050919050565b6000602082019050818103600083015261344f8161305c565b9050919050565b6000602082019050818103600083015261346f8161307f565b9050919050565b6000602082019050818103600083015261348f816130a2565b9050919050565b600060208201905081810360008301526134af816130c5565b9050919050565b600060208201905081810360008301526134cf816130e8565b9050919050565b600060208201905081810360008301526134ef8161310b565b9050919050565b600060208201905061350b600083018461312e565b92915050565b600061351b61352c565b90506135278282613722565b919050565b6000604051905090565b600067ffffffffffffffff821115613551576135506137e0565b5b61355a8261380f565b9050602081019050919050565b600067ffffffffffffffff821115613582576135816137e0565b5b61358b8261380f565b9050602081019050919050565b60008190508160005260206000209050919050565b600081519050919050565b600081519050919050565b600082825260208201905092915050565b600082825260208201905092915050565b60006135f082613680565b91506135fb83613680565b9250827fffffffffffffffffffffffffffffffffffffffffffffffffffffffffffffffff038211156136305761362f613753565b5b828201905092915050565b600061364682613660565b9050919050565b600081905061365b82613b65565b919050565b600073ffffffffffffffffffffffffffffffffffffffff82169050919050565b6000819050919050565b60006136958261364d565b9050919050565b60006136a782613680565b9050919050565b82818337600083830152505050565b60005b838110156136db5780820151818401526020810190506136c0565b838111156136ea576000848401525b50505050565b6000600282049050600182168061370857607f821691505b6020821081141561371c5761371b6137b1565b5b50919050565b61372b8261380f565b810181811067ffffffffffffffff8211171561374a576137496137e0565b5b80604052505050565b7f4e487b7100000000000000000000000000000000000000000000000000000000600052601160045260246000fd5b7f4e487b7100000000000000000000000000000000000000000000000000000000600052602160045260246000fd5b7f4e487b7100000000000000000000000000000000000000000000000000000000600052602260045260246000fd5b7f4e487b7100000000000000000000000000000000000000000000000000000000600052604160045260246000fd5b6000601f19601f8301169050919050565b7f4f7264657220616c726561647920636f6d6d697465642e000000000000000000600082015250565b7f436c69656e74206e6f7420726567697374657265642e00000000000000000000600082015250565b7f427579657220616e642053656c6c6572206d757374206e6f742062652074686560008201527f2073616d652e0000000000000000000000000000000000000000000000000000602082015250565b7f506c65617365207761697420666f72207468652065787069726174696f6e206f60008201527f66207468652070726576696f75732070686173652e0000000000000000000000602082015250565b7f4e6f20636970686572746578742070726f76696465642062792074686973206260008201527f757965722e000000000000000000000000000000000000000000000000000000602082015250565b7f546869732066756e6374696f6e206973206e6f742063616c6c61626c6520617460008201527f20746869732070686173652e0000000000000000000000000000000000000000602082015250565b7f5472616e73616374696f6e206164647265737320646f65736e277420636f727260008201527f6573706f6e6420746f2061207265676973746572656420757365722e00000000602082015250565b7f5472616e73616374696f6e206164647265737320646f6573206e6f7420636f7260008201527f726573706f6e6420746f2061207265676973746572656420757365722e000000602082015250565b7f4e6f20636f6d6d69746d656e742070726f76696465642062792074686973206260008201527f757965722e000000000000000000000000000000000000000000000000000000602082015250565b7f4369706865727465787420616c72656164792072657665616c65642e00000000600082015250565b7f41756374696f6e206d6f64652073686f756c642062652030206f722031206f7260008201527f20322e0000000000000000000000000000000000000000000000000000000000602082015250565b7f4f6e6c7920746865206f70657261746f722063616e2063616c6c20746869732e600082015250565b7f4e6f20636f6d6d69746d656e7420776173206d6164652e000000000000000000600082015250565b60058110613b7657613b75613782565b5b50565b613b828161363b565b8114613b8d57600080fd5b50565b613b9981613680565b8114613ba457600080fd5b5056fea2646970667358221220303b3cdf11baeaa795c1ae1814fb1ceff87a0368369f1c60c4f645c7fbecc66564736f6c63430008010033",
  "immutableReferences": {},
  "source": "// SPDX-License-Identifier: GPLv3\r\n\r\npragma solidity ^0.8.1;\r\npragma abicoder v2;\r\npragma experimental SMTChecker;\r\n\r\ncontract darkPool {\r\n    // State:\r\n    //      Registration (Reg): operator can add, delete and modify client data,\r\n    //      Trading (Tr): clients commit orders\r\n    //      Reveil (Rev): clients \"reveil\" orders\r\n    //      Calculation (Cal): operator performs the computation\r\n    //      Results (Res): operator publishes matched orders\r\n    // Then we move back to registration (next \"trading day\")\r\n    enum Phase { Reg, Trd, Rev, Cal, Res }\r\n    Phase public phase;\r\n    address public operator; // adress of the dark pool operator\r\n    mapping(address => bytes) public us_pk; // user specific public key\r\n    // Stores details about each order\r\n    struct Order {\r\n        bytes _commitment;\r\n        bytes _ciphertext;\r\n        bytes _sk;\r\n    }\r\n    // Stores user orders\r\n    mapping(address => Order) public orders;\r\n    // 0: Periodic, 1: Volume, 2: MV\r\n    uint public auctionMode;\r\n    uint public expiration;\r\n\r\n    // inform participants about current state\r\n    event startPhase(\r\n        Phase currentState,\r\n        uint expirationTime\r\n    );\r\n\r\n    // inform participants about \"revealed\" commitments only since\r\n    // the rest are automatically rejected (invalid)\r\n    event commitmentRevealed(\r\n        address sender,\r\n        bytes commitment,\r\n        bytes ciphertext\r\n    );\r\n\r\n    // reveal secret for a matched order\r\n    event secretRevealed(\r\n      address sender,\r\n      bytes commitment,\r\n      bytes ciphertext,\r\n      bytes secret\r\n    );\r\n\r\n    // log trades after they were matched\r\n    event logTrade(\r\n        string buyer,\r\n        address buyerAddr,\r\n        string seller,\r\n        address sellerAddr,\r\n        string asset,\r\n        uint amount,\r\n        uint price\r\n    );\r\n\r\n    // log when a registered client claims fraud\r\n    event fraudClaimed(\r\n        address claimer\r\n    );\r\n\r\n    constructor() {\r\n        // save address of dark pool operator\r\n        operator = msg.sender;\r\n        // start registration phase\r\n        phase = Phase.Reg;\r\n        // emit event\r\n        emit startPhase(Phase.Reg, 0);\r\n    }\r\n\r\n    // *** Operator functions ***\r\n\r\n    function register_client(address client_address, bytes memory pk) external {\r\n        // only the operator can add new clients\r\n        require(msg.sender == operator, \"Only the operator can call this.\");\r\n        // check if we are at the registration phase\r\n        require(phase == Phase.Reg, \"This function is not callable at this phase.\");\r\n        // add client\r\n        us_pk[client_address] = pk;\r\n    }\r\n\r\n    // time: time for clients to send their hashed orders\r\n    //       (this is basicly the trading duration)\r\n    function trading_phase(uint time, uint mode) external {\r\n        // only the operator can initiate the trading phase\r\n        require(msg.sender == operator, \"Only the operator can call this.\");\r\n         // check if we are at the registration phase\r\n        require(phase == Phase.Reg, \"This function is not callable at this phase.\");\r\n        // check if it's a valid auction mode\r\n        require(mode < 3, \"Auction mode should be 0 or 1 or 2.\");\r\n        // set auction mode\r\n        auctionMode = mode;\r\n        // change to trading phase\r\n        phase = Phase.Trd;\r\n        // set expiration time for trading day\r\n        // trading time in blocks, 1 block is mined every ~12 seconds\r\n        expiration = block.number + time;\r\n        // emit event\r\n        emit startPhase(Phase.Trd, expiration);\r\n    }\r\n\r\n    // time: time for clients to \"reveal\" their orders,\r\n    //       otherwise orders are deemed invalid\r\n    function reveal_phase(uint time) external {\r\n        // only the operator can initiate the reveal phase\r\n        require(msg.sender == operator, \"Only the operator can call this.\");\r\n         // check if we are at the trading phase\r\n        require(phase == Phase.Trd, \"This function is not callable at this phase.\");\r\n        // check if we are at or past expiration\r\n        require(block.number >= expiration, \"Please wait for the expiration of the previous phase.\");\r\n        // change to reveal phase\r\n        phase = Phase.Rev;\r\n        // set expiration time\r\n        expiration = block.number + time;\r\n        // emit event\r\n        emit startPhase(Phase.Rev, expiration);\r\n    }\r\n\r\n    function calc_phase() external {\r\n        // only the operator can initiate the calculation phase\r\n        require(msg.sender == operator, \"Only the operator can call this.\");\r\n         // check if we are at the reveal phase\r\n        require(phase == Phase.Rev, \"This function is not callable at this phase.\");\r\n        // check if we are at or past expiration\r\n        require(block.number >= expiration, \"Please wait for the expiration of the previous phase.\");\r\n        // change to calculation phase\r\n        phase = Phase.Cal;\r\n        // emit event\r\n        emit startPhase(Phase.Cal, 0);\r\n    }\r\n\r\n    function reveal_match(string memory asset, address buyer, bytes memory skB, string memory nameB, address seller,\r\n                          bytes memory skS, string memory nameS, uint amount, uint price) external {\r\n        // only the operator can reveal a match\r\n        require(msg.sender == operator, \"Only the operator can call this.\");\r\n         // check if we are at the calculation phase\r\n        require(phase == Phase.Cal, \"This function is not callable at this phase.\");\r\n        // check that two different clients were provided\r\n        require(buyer != seller, \"Buyer and Seller must not be the same.\");\r\n        // check if buyer has provided all details\r\n        // check if commitment exists\r\n        require(orders[buyer]._commitment.length > 0, \"No commitment provided by this buyer.\");\r\n        // check if ciphertext exists\r\n        require(orders[buyer]._ciphertext.length > 0, \"No ciphertext provided by this buyer.\");\r\n        // check if seller has provided all details\r\n        // check if commitment exists\r\n        require(orders[seller]._commitment.length > 0, \"No commitment provided by this buyer.\");\r\n        // check if ciphertext exists\r\n        require(orders[seller]._ciphertext.length > 0, \"No ciphertext provided by this buyer.\");\r\n        // publish secret keys, allowing verification\r\n        // check if seller key was already published\r\n        if(orders[seller]._sk.length == 0) {\r\n            orders[seller]._sk = skS;\r\n            emit secretRevealed(seller, orders[seller]._commitment, orders[seller]._ciphertext, skS);\r\n        }\r\n        // check if buyer key was already published\r\n        if(orders[buyer]._sk.length == 0) {\r\n            orders[buyer]._sk = skB;\r\n            emit secretRevealed(buyer, orders[buyer]._commitment, orders[buyer]._ciphertext, skB);\r\n        }\r\n        // emit trade event\r\n        emit logTrade(nameB, buyer, nameS, seller, asset, amount, price);\r\n    }\r\n\r\n    // time: time for clients to check if their order was executed, validate\r\n    //       the algorithm and send new address for the next trading day\r\n    function res_phase(uint time) external {\r\n        // only the operator can initiate the results phase\r\n        require(msg.sender == operator, \"Only the operator can call this.\");\r\n         // check if we are at the calculation phase\r\n        require(phase == Phase.Cal, \"This function is not callable at this phase.\");\r\n        // change to results phase\r\n        phase = Phase.Res;\r\n        // set expiration time\r\n        expiration = block.number + time;\r\n        // emit event\r\n        emit startPhase(Phase.Res, expiration);\r\n    }\r\n\r\n    function reg_phase() external {\r\n        // only the operator can initiate the registration phase\r\n        require(msg.sender == operator, \"Only the operator can call this.\");\r\n         // check if we are at the results phase\r\n        require(phase == Phase.Res, \"This function is not callable at this phase.\");\r\n        // check if we are at or past expiration\r\n        require(block.number >= expiration, \"Please wait for the expiration of the previous phase.\");\r\n        // change to the registration phase\r\n        phase = Phase.Reg;\r\n        // emit event\r\n        emit startPhase(Phase.Reg, 0);\r\n    }\r\n\r\n    // *** IMPORTANT NOTE: ***\r\n    // At the end of a trading day, the operator MUST delete all orders or delete\r\n    // and reregister(in random order) every client that took part in the previous\r\n    // trading day, otherwise their previous order won't be deleted from the smart\r\n    // contract (this could lead to previous orders re-executing)\r\n\r\n    function remove_order(address client_address) external {\r\n        // only the operator can delete orders\r\n        require(msg.sender == operator, \"Only the operator can call this.\");\r\n        // check if we are at the registration phase\r\n        require(phase == Phase.Reg, \"This function is not callable at this phase.\");\r\n        // check if client already assigned a public key\r\n        require(us_pk[client_address].length != 0, \"Client not registered.\");\r\n        // remove old order if any\r\n        delete orders[client_address];\r\n    }\r\n\r\n    function remove_client(address client_address) external {\r\n        // only the operator can delete clients\r\n        require(msg.sender == operator, \"Only the operator can call this.\");\r\n        // check if we are at the registration phase\r\n        require(phase == Phase.Reg, \"This function is not callable at this phase.\");\r\n        // check if client already assigned a public key\r\n        require(us_pk[client_address].length != 0, \"Client not registered.\");\r\n        // remove old order if any\r\n        delete orders[client_address];\r\n        // delete clients public key\r\n        delete us_pk[client_address];\r\n    }\r\n\r\n    // *** Client functions ***\r\n\r\n    function commit_order(bytes memory hashed_order) external {\r\n         // check if we are at the trading phase\r\n        require(phase == Phase.Trd, \"This function is not callable at this phase.\");\r\n        // only a registered user can commit an order\r\n        require(us_pk[msg.sender].length > 0, \"Transaction address does not correspond to a registered user.\");\r\n        // check if commitment exists\r\n        require(orders[msg.sender]._commitment.length == 0, \"Order already commited.\");\r\n        // add commitment only (nonce and ciphertext set to default values)\r\n        orders[msg.sender]._commitment = hashed_order;\r\n    }\r\n\r\n    function cancel_order() external {\r\n         // check if we are at the trading phase\r\n        require(phase == Phase.Trd, \"This function is not callable at this phase.\");\r\n        // only a registered user can cancel an order\r\n        require(us_pk[msg.sender].length > 0, \"Transaction address does not correspond to a registered user.\");\r\n        // check if client has commited to an order\r\n        require(orders[msg.sender]._commitment.length > 0, \"No commitment was made.\");\r\n        // delete commitment\r\n        delete orders[msg.sender]._commitment;\r\n    }\r\n\r\n    function change_order(bytes memory hashed_order) external {\r\n         // check if we are at the trading phase\r\n        require(phase == Phase.Trd, \"This function is not callable at this phase.\");\r\n        // only a registered user can change an order\r\n        require(us_pk[msg.sender].length > 0, \"Transaction address does not correspond to a registered user.\");\r\n        // check if client has commited to an order\r\n        require(orders[msg.sender]._commitment.length > 0, \"No commitment was made.\");\r\n        // change the commitment\r\n        orders[msg.sender]._commitment = hashed_order;\r\n    }\r\n\r\n    function reveal_order(bytes memory ciphertext) external {\r\n        // check if we are at the reveal phase\r\n        require(phase == Phase.Rev, \"This function is not callable at this phase.\");\r\n        // only a registered user can commit an order\r\n        require(us_pk[msg.sender].length > 0, \"Transaction address doesn't correspond to a registered user.\");\r\n        // check if commitment exists\r\n        require(orders[msg.sender]._commitment.length > 0, \"No commitment was made.\");\r\n        // check if ciphertext exists\r\n        require(orders[msg.sender]._ciphertext.length == 0, \"Ciphertext already revealed.\");\r\n        // add ciphertext\r\n        orders[msg.sender]._ciphertext = ciphertext;\r\n        // emit event\r\n        emit commitmentRevealed(msg.sender, orders[msg.sender]._commitment, orders[msg.sender]._ciphertext);\r\n    }\r\n\r\n    function claim_fraud() external {\r\n        // check if we are at the reveal phase\r\n        require(phase == Phase.Res, \"This function is not callable at this phase.\");\r\n        // only a registered user can commit an order\r\n        require(us_pk[msg.sender].length > 0, \"Transaction address doesn't correspond to a registered user.\");\r\n        // emit event\r\n        emit fraudClaimed(msg.sender);\r\n    }\r\n}\r\n",
  "sourcePath": "C:/Users/theod/OneDrive - University of Bristol/Uni/4 Forth Year/Project/DarkPool Workings/truffle/contracts/darkPool.sol",
  "compiler": {
    "name": "solc",
    "version": "0.8.1+commit.df193b15.Emscripten.clang"
  },
  "schemaVersion": "3.3.3",
  "updatedAt": "2021-05-04T19:00:16.454Z",
  "devdoc": {
    "kind": "dev",
    "methods": {},
    "version": 1
  },
  "userdoc": {
    "kind": "user",
    "methods": {},
    "version": 1
  }
}